{
  "_format": "hh-sol-artifact-1",
  "contractName": "LandRegistry",
  "sourceName": "contracts/mintParcel.sol",
  "abi": [
    {
      "inputs": [],
      "stateMutability": "nonpayable",
      "type": "constructor"
    },
    {
      "anonymous": false,
      "inputs": [
        {
          "indexed": true,
          "internalType": "address",
          "name": "owner",
          "type": "address"
        },
        {
          "indexed": true,
          "internalType": "address",
          "name": "approved",
          "type": "address"
        },
        {
          "indexed": true,
          "internalType": "uint256",
          "name": "tokenId",
          "type": "uint256"
        }
      ],
      "name": "Approval",
      "type": "event"
    },
    {
      "anonymous": false,
      "inputs": [
        {
          "indexed": true,
          "internalType": "address",
          "name": "owner",
          "type": "address"
        },
        {
          "indexed": true,
          "internalType": "address",
          "name": "operator",
          "type": "address"
        },
        {
          "indexed": false,
          "internalType": "bool",
          "name": "approved",
          "type": "bool"
        }
      ],
      "name": "ApprovalForAll",
      "type": "event"
    },
    {
      "anonymous": false,
      "inputs": [
        {
          "indexed": false,
          "internalType": "uint256",
          "name": "_fromTokenId",
          "type": "uint256"
        },
        {
          "indexed": false,
          "internalType": "uint256",
          "name": "_toTokenId",
          "type": "uint256"
        }
      ],
      "name": "BatchMetadataUpdate",
      "type": "event"
    },
    {
      "anonymous": false,
      "inputs": [
        {
          "indexed": false,
          "internalType": "uint256",
          "name": "tokenId",
          "type": "uint256"
        }
      ],
      "name": "LandBurned",
      "type": "event"
    },
    {
      "anonymous": false,
      "inputs": [
        {
          "indexed": false,
          "internalType": "uint256",
          "name": "tokenId",
          "type": "uint256"
        },
        {
          "indexed": false,
          "internalType": "address",
          "name": "owner",
          "type": "address"
        },
        {
          "indexed": false,
          "internalType": "string",
          "name": "ipfsHash",
          "type": "string"
        },
        {
          "indexed": false,
          "internalType": "uint256",
          "name": "price",
          "type": "uint256"
        },
        {
          "indexed": false,
          "internalType": "uint256",
          "name": "royalty",
          "type": "uint256"
        }
      ],
      "name": "LandMinted",
      "type": "event"
    },
    {
      "anonymous": false,
      "inputs": [
        {
          "indexed": false,
          "internalType": "uint256",
          "name": "tokenId",
          "type": "uint256"
        },
        {
          "indexed": false,
          "internalType": "address",
          "name": "from",
          "type": "address"
        },
        {
          "indexed": false,
          "internalType": "address",
          "name": "to",
          "type": "address"
        }
      ],
      "name": "LandTransferred",
      "type": "event"
    },
    {
      "anonymous": false,
      "inputs": [
        {
          "indexed": false,
          "internalType": "uint256",
          "name": "_tokenId",
          "type": "uint256"
        }
      ],
      "name": "MetadataUpdate",
      "type": "event"
    },
    {
      "anonymous": false,
      "inputs": [
        {
          "indexed": true,
          "internalType": "address",
          "name": "previousOwner",
          "type": "address"
        },
        {
          "indexed": true,
          "internalType": "address",
          "name": "newOwner",
          "type": "address"
        }
      ],
      "name": "OwnershipTransferred",
      "type": "event"
    },
    {
      "anonymous": false,
      "inputs": [
        {
          "indexed": true,
          "internalType": "address",
          "name": "from",
          "type": "address"
        },
        {
          "indexed": true,
          "internalType": "address",
          "name": "to",
          "type": "address"
        },
        {
          "indexed": true,
          "internalType": "uint256",
          "name": "tokenId",
          "type": "uint256"
        }
      ],
      "name": "Transfer",
      "type": "event"
    },
    {
      "inputs": [
        {
          "internalType": "address",
          "name": "to",
          "type": "address"
        },
        {
          "internalType": "uint256",
          "name": "tokenId",
          "type": "uint256"
        }
      ],
      "name": "approve",
      "outputs": [],
      "stateMutability": "nonpayable",
      "type": "function"
    },
    {
      "inputs": [
        {
          "internalType": "address",
          "name": "owner",
          "type": "address"
        }
      ],
      "name": "balanceOf",
      "outputs": [
        {
          "internalType": "uint256",
          "name": "",
          "type": "uint256"
        }
      ],
      "stateMutability": "view",
      "type": "function"
    },
    {
      "inputs": [
        {
          "internalType": "uint256",
          "name": "tokenId",
          "type": "uint256"
        }
      ],
      "name": "burnLand",
      "outputs": [],
      "stateMutability": "nonpayable",
      "type": "function"
    },
    {
      "inputs": [
        {
          "internalType": "uint256",
          "name": "tokenId",
          "type": "uint256"
        }
      ],
      "name": "getApproved",
      "outputs": [
        {
          "internalType": "address",
          "name": "",
          "type": "address"
        }
      ],
      "stateMutability": "view",
      "type": "function"
    },
    {
      "inputs": [
        {
          "internalType": "uint256",
          "name": "tokenId",
          "type": "uint256"
        }
      ],
      "name": "getLand",
      "outputs": [
        {
          "internalType": "address",
          "name": "owner",
          "type": "address"
        },
        {
          "internalType": "string",
          "name": "ipfsHash",
          "type": "string"
        },
        {
          "internalType": "uint256",
          "name": "price",
          "type": "uint256"
        },
        {
          "internalType": "uint256",
          "name": "royalty",
          "type": "uint256"
        }
      ],
      "stateMutability": "view",
      "type": "function"
    },
    {
      "inputs": [
        {
          "internalType": "address",
          "name": "owner",
          "type": "address"
        },
        {
          "internalType": "address",
          "name": "operator",
          "type": "address"
        }
      ],
      "name": "isApprovedForAll",
      "outputs": [
        {
          "internalType": "bool",
          "name": "",
          "type": "bool"
        }
      ],
      "stateMutability": "view",
      "type": "function"
    },
    {
      "inputs": [
        {
          "internalType": "uint256",
          "name": "",
          "type": "uint256"
        }
      ],
      "name": "lands",
      "outputs": [
        {
          "internalType": "address",
          "name": "owner",
          "type": "address"
        },
        {
          "internalType": "string",
          "name": "ipfsHash",
          "type": "string"
        },
        {
          "internalType": "uint256",
          "name": "price",
          "type": "uint256"
        },
        {
          "internalType": "uint256",
          "name": "royalty",
          "type": "uint256"
        }
      ],
      "stateMutability": "view",
      "type": "function"
    },
    {
      "inputs": [
        {
          "internalType": "string",
          "name": "ipfsHash",
          "type": "string"
        },
        {
          "internalType": "uint256",
          "name": "price",
          "type": "uint256"
        },
        {
          "internalType": "uint256",
          "name": "royalty",
          "type": "uint256"
        }
      ],
      "name": "mintLand",
      "outputs": [],
      "stateMutability": "nonpayable",
      "type": "function"
    },
    {
      "inputs": [],
      "name": "name",
      "outputs": [
        {
          "internalType": "string",
          "name": "",
          "type": "string"
        }
      ],
      "stateMutability": "view",
      "type": "function"
    },
    {
      "inputs": [],
      "name": "owner",
      "outputs": [
        {
          "internalType": "address",
          "name": "",
          "type": "address"
        }
      ],
      "stateMutability": "view",
      "type": "function"
    },
    {
      "inputs": [
        {
          "internalType": "uint256",
          "name": "tokenId",
          "type": "uint256"
        }
      ],
      "name": "ownerOf",
      "outputs": [
        {
          "internalType": "address",
          "name": "",
          "type": "address"
        }
      ],
      "stateMutability": "view",
      "type": "function"
    },
    {
      "inputs": [],
      "name": "renounceOwnership",
      "outputs": [],
      "stateMutability": "nonpayable",
      "type": "function"
    },
    {
      "inputs": [
        {
          "internalType": "address",
          "name": "from",
          "type": "address"
        },
        {
          "internalType": "address",
          "name": "to",
          "type": "address"
        },
        {
          "internalType": "uint256",
          "name": "tokenId",
          "type": "uint256"
        }
      ],
      "name": "safeTransferFrom",
      "outputs": [],
      "stateMutability": "nonpayable",
      "type": "function"
    },
    {
      "inputs": [
        {
          "internalType": "address",
          "name": "from",
          "type": "address"
        },
        {
          "internalType": "address",
          "name": "to",
          "type": "address"
        },
        {
          "internalType": "uint256",
          "name": "tokenId",
          "type": "uint256"
        },
        {
          "internalType": "bytes",
          "name": "data",
          "type": "bytes"
        }
      ],
      "name": "safeTransferFrom",
      "outputs": [],
      "stateMutability": "nonpayable",
      "type": "function"
    },
    {
      "inputs": [
        {
          "internalType": "address",
          "name": "operator",
          "type": "address"
        },
        {
          "internalType": "bool",
          "name": "approved",
          "type": "bool"
        }
      ],
      "name": "setApprovalForAll",
      "outputs": [],
      "stateMutability": "nonpayable",
      "type": "function"
    },
    {
      "inputs": [
        {
          "internalType": "bytes4",
          "name": "interfaceId",
          "type": "bytes4"
        }
      ],
      "name": "supportsInterface",
      "outputs": [
        {
          "internalType": "bool",
          "name": "",
          "type": "bool"
        }
      ],
      "stateMutability": "view",
      "type": "function"
    },
    {
      "inputs": [],
      "name": "symbol",
      "outputs": [
        {
          "internalType": "string",
          "name": "",
          "type": "string"
        }
      ],
      "stateMutability": "view",
      "type": "function"
    },
    {
      "inputs": [
        {
          "internalType": "uint256",
          "name": "tokenId",
          "type": "uint256"
        }
      ],
      "name": "tokenURI",
      "outputs": [
        {
          "internalType": "string",
          "name": "",
          "type": "string"
        }
      ],
      "stateMutability": "view",
      "type": "function"
    },
    {
      "inputs": [
        {
          "internalType": "address",
          "name": "from",
          "type": "address"
        },
        {
          "internalType": "address",
          "name": "to",
          "type": "address"
        },
        {
          "internalType": "uint256",
          "name": "tokenId",
          "type": "uint256"
        }
      ],
      "name": "transferFrom",
      "outputs": [],
      "stateMutability": "nonpayable",
      "type": "function"
    },
    {
      "inputs": [
        {
          "internalType": "address",
          "name": "to",
          "type": "address"
        },
        {
          "internalType": "uint256",
          "name": "tokenId",
          "type": "uint256"
        }
      ],
      "name": "transferLand",
      "outputs": [],
      "stateMutability": "nonpayable",
      "type": "function"
    },
    {
      "inputs": [
        {
          "internalType": "address",
          "name": "newOwner",
          "type": "address"
        }
      ],
      "name": "transferOwnership",
      "outputs": [],
      "stateMutability": "nonpayable",
      "type": "function"
    },
    {
      "inputs": [
        {
          "internalType": "uint256",
          "name": "tokenId",
          "type": "uint256"
        },
        {
          "internalType": "uint256",
          "name": "newPrice",
          "type": "uint256"
        }
      ],
      "name": "updateLandPrice",
      "outputs": [],
      "stateMutability": "nonpayable",
      "type": "function"
    },
    {
      "inputs": [
        {
          "internalType": "uint256",
          "name": "tokenId",
          "type": "uint256"
        },
        {
          "internalType": "uint256",
          "name": "newRoyalty",
          "type": "uint256"
        }
      ],
      "name": "updateLandRoyalty",
      "outputs": [],
      "stateMutability": "nonpayable",
      "type": "function"
    }
  ],
  "bytecode": "0x60806040523480156200001157600080fd5b506040518060400160405280600c81526020017f4c616e64526567697374727900000000000000000000000000000000000000008152506040518060400160405280600481526020017f4c414e440000000000000000000000000000000000000000000000000000000081525081600090816200008f919062000412565b508060019081620000a1919062000412565b505050620000c4620000b8620000ca60201b60201c565b620000d260201b60201c565b620004f9565b600033905090565b6000600760009054906101000a900473ffffffffffffffffffffffffffffffffffffffff16905081600760006101000a81548173ffffffffffffffffffffffffffffffffffffffff021916908373ffffffffffffffffffffffffffffffffffffffff1602179055508173ffffffffffffffffffffffffffffffffffffffff168173ffffffffffffffffffffffffffffffffffffffff167f8be0079c531659141344cd1fd0a4f28419497f9722a3daafe3b4186f6b6457e060405160405180910390a35050565b600081519050919050565b7f4e487b7100000000000000000000000000000000000000000000000000000000600052604160045260246000fd5b7f4e487b7100000000000000000000000000000000000000000000000000000000600052602260045260246000fd5b600060028204905060018216806200021a57607f821691505b60208210810362000230576200022f620001d2565b5b50919050565b60008190508160005260206000209050919050565b60006020601f8301049050919050565b600082821b905092915050565b6000600883026200029a7fffffffffffffffffffffffffffffffffffffffffffffffffffffffffffffffff826200025b565b620002a686836200025b565b95508019841693508086168417925050509392505050565b6000819050919050565b6000819050919050565b6000620002f3620002ed620002e784620002be565b620002c8565b620002be565b9050919050565b6000819050919050565b6200030f83620002d2565b620003276200031e82620002fa565b84845462000268565b825550505050565b600090565b6200033e6200032f565b6200034b81848462000304565b505050565b5b8181101562000373576200036760008262000334565b60018101905062000351565b5050565b601f821115620003c2576200038c8162000236565b62000397846200024b565b81016020851015620003a7578190505b620003bf620003b6856200024b565b83018262000350565b50505b505050565b600082821c905092915050565b6000620003e760001984600802620003c7565b1980831691505092915050565b6000620004028383620003d4565b9150826002028217905092915050565b6200041d8262000198565b67ffffffffffffffff811115620004395762000438620001a3565b5b62000445825462000201565b6200045282828562000377565b600060209050601f8311600181146200048a576000841562000475578287015190505b620004818582620003f4565b865550620004f1565b601f1984166200049a8662000236565b60005b82811015620004c4578489015182556001820191506020850194506020810190506200049d565b86831015620004e45784890151620004e0601f891682620003d4565b8355505b6001600288020188555050505b505050505050565b613ac280620005096000396000f3fe608060405234801561001057600080fd5b506004361061014d5760003560e01c8063715018a6116100c3578063c87b56dd1161007c578063c87b56dd14610372578063d9883617146103a2578063e261f1e5146103be578063e985e9c5146103f1578063f02dd53f14610421578063f2fde38b146104545761014d565b8063715018a6146102d85780638da5cb5b146102e257806395d89b4114610300578063a22cb4651461031e578063b3f40d6a1461033a578063b88d4fde146103565761014d565b80633e4c52ba116101155780633e4c52ba1461020857806342842e0e146102245780634c33fbb7146102405780636352211e1461025c5780636613221f1461028c57806370a08231146102a85761014d565b806301ffc9a71461015257806306fdde0314610182578063081812fc146101a0578063095ea7b3146101d057806323b872dd146101ec575b600080fd5b61016c6004803603810190610167919061263f565b610470565b6040516101799190612687565b60405180910390f35b61018a6104d1565b6040516101979190612732565b60405180910390f35b6101ba60048036038101906101b5919061278a565b610563565b6040516101c791906127f8565b60405180910390f35b6101ea60048036038101906101e5919061283f565b6105a9565b005b6102066004803603810190610201919061287f565b6106c0565b005b610222600480360381019061021d91906128d2565b610720565b005b61023e6004803603810190610239919061287f565b6107cd565b005b61025a600480360381019061025591906128d2565b6107ed565b005b6102766004803603810190610271919061278a565b610855565b60405161028391906127f8565b60405180910390f35b6102a660048036038101906102a1919061278a565b6108db565b005b6102c260048036038101906102bd9190612912565b6109c4565b6040516102cf919061294e565b60405180910390f35b6102e0610a7b565b005b6102ea610a8f565b6040516102f791906127f8565b60405180910390f35b610308610ab9565b6040516103159190612732565b60405180910390f35b61033860048036038101906103339190612995565b610b4b565b005b610354600480360381019061034f919061283f565b610b61565b005b610370600480360381019061036b9190612b0a565b610c49565b005b61038c6004803603810190610387919061278a565b610cab565b6040516103999190612732565b60405180910390f35b6103bc60048036038101906103b79190612c2e565b610dbd565b005b6103d860048036038101906103d3919061278a565b610f31565b6040516103e89493929190612c9d565b60405180910390f35b61040b60048036038101906104069190612ce9565b611009565b6040516104189190612687565b60405180910390f35b61043b6004803603810190610436919061278a565b61109d565b60405161044b9493929190612c9d565b60405180910390f35b61046e60048036038101906104699190612912565b61122e565b005b6000634906490660e01b7bffffffffffffffffffffffffffffffffffffffffffffffffffffffff1916827bffffffffffffffffffffffffffffffffffffffffffffffffffffffff191614806104ca57506104c9826112b1565b5b9050919050565b6060600080546104e090612d58565b80601f016020809104026020016040519081016040528092919081815260200182805461050c90612d58565b80156105595780601f1061052e57610100808354040283529160200191610559565b820191906000526020600020905b81548152906001019060200180831161053c57829003601f168201915b5050505050905090565b600061056e82611393565b6004600083815260200190815260200160002060009054906101000a900473ffffffffffffffffffffffffffffffffffffffff169050919050565b60006105b482610855565b90508073ffffffffffffffffffffffffffffffffffffffff168373ffffffffffffffffffffffffffffffffffffffff1603610624576040517f08c379a000000000000000000000000000000000000000000000000000000000815260040161061b90612dfb565b60405180910390fd5b8073ffffffffffffffffffffffffffffffffffffffff166106436113de565b73ffffffffffffffffffffffffffffffffffffffff16148061067257506106718161066c6113de565b611009565b5b6106b1576040517f08c379a00000000000000000000000000000000000000000000000000000000081526004016106a890612e8d565b60405180910390fd5b6106bb83836113e6565b505050565b6106d16106cb6113de565b8261149f565b610710576040517f08c379a000000000000000000000000000000000000000000000000000000000815260040161070790612f1f565b60405180910390fd5b61071b838383611534565b505050565b61072a338361149f565b610769576040517f08c379a000000000000000000000000000000000000000000000000000000000815260040161076090612f8b565b60405180910390fd5b6127108111156107ae576040517f08c379a00000000000000000000000000000000000000000000000000000000081526004016107a590612ff7565b60405180910390fd5b8060096000848152602001908152602001600020600301819055505050565b6107e883838360405180602001604052806000815250610c49565b505050565b6107f7338361149f565b610836576040517f08c379a000000000000000000000000000000000000000000000000000000000815260040161082d90612f8b565b60405180910390fd5b8060096000848152602001908152602001600020600201819055505050565b6000806108618361182d565b9050600073ffffffffffffffffffffffffffffffffffffffff168173ffffffffffffffffffffffffffffffffffffffff16036108d2576040517f08c379a00000000000000000000000000000000000000000000000000000000081526004016108c990613063565b60405180910390fd5b80915050919050565b6108e5338261149f565b610924576040517f08c379a000000000000000000000000000000000000000000000000000000000815260040161091b90612f8b565b60405180910390fd5b61092d8161186a565b60096000828152602001908152602001600020600080820160006101000a81549073ffffffffffffffffffffffffffffffffffffffff02191690556001820160006109789190612576565b6002820160009055600382016000905550507f08051f3c22a89639dd1c7b865ac3dfce20fd7dfdf3e825f275e2a7d26ef18210816040516109b9919061294e565b60405180910390a150565b60008073ffffffffffffffffffffffffffffffffffffffff168273ffffffffffffffffffffffffffffffffffffffff1603610a34576040517f08c379a0000000000000000000000000000000000000000000000000000000008152600401610a2b906130f5565b60405180910390fd5b600360008373ffffffffffffffffffffffffffffffffffffffff1673ffffffffffffffffffffffffffffffffffffffff168152602001908152602001600020549050919050565b610a836118bd565b610a8d600061193b565b565b6000600760009054906101000a900473ffffffffffffffffffffffffffffffffffffffff16905090565b606060018054610ac890612d58565b80601f0160208091040260200160405190810160405280929190818152602001828054610af490612d58565b8015610b415780601f10610b1657610100808354040283529160200191610b41565b820191906000526020600020905b815481529060010190602001808311610b2457829003601f168201915b5050505050905090565b610b5d610b566113de565b8383611a01565b5050565b610b6b338261149f565b610baa576040517f08c379a0000000000000000000000000000000000000000000000000000000008152600401610ba190612f8b565b60405180910390fd5b610bb5338383611534565b816009600083815260200190815260200160002060000160006101000a81548173ffffffffffffffffffffffffffffffffffffffff021916908373ffffffffffffffffffffffffffffffffffffffff1602179055507f1080b2f211753e5090f26ef7ffdc6bb3e66a125c7290200d10b502160bb1f566813384604051610c3d93929190613115565b60405180910390a15050565b610c5a610c546113de565b8361149f565b610c99576040517f08c379a0000000000000000000000000000000000000000000000000000000008152600401610c9090612f1f565b60405180910390fd5b610ca584848484611b6d565b50505050565b6060610cb682611393565b6000600660008481526020019081526020016000208054610cd690612d58565b80601f0160208091040260200160405190810160405280929190818152602001828054610d0290612d58565b8015610d4f5780601f10610d2457610100808354040283529160200191610d4f565b820191906000526020600020905b815481529060010190602001808311610d3257829003601f168201915b505050505090506000610d60611bc9565b90506000815103610d75578192505050610db8565b600082511115610daa578082604051602001610d92929190613188565b60405160208183030381529060405292505050610db8565b610db384611be0565b925050505b919050565b612710811115610e02576040517f08c379a0000000000000000000000000000000000000000000000000000000008152600401610df990612ff7565b60405180910390fd5b6000610e0e6008611c48565b9050610e1a6008611c56565b610e243382611c6c565b610e2e8185611c8a565b60405180608001604052803373ffffffffffffffffffffffffffffffffffffffff168152602001858152602001848152602001838152506009600083815260200190815260200160002060008201518160000160006101000a81548173ffffffffffffffffffffffffffffffffffffffff021916908373ffffffffffffffffffffffffffffffffffffffff1602179055506020820151816001019081610ed49190613358565b5060408201518160020155606082015181600301559050507f2a2c5d03cac260703025d4789111de009bdbb086ae9811955ea87acd610bc4b78133868686604051610f2395949392919061342a565b60405180910390a150505050565b60096020528060005260406000206000915090508060000160009054906101000a900473ffffffffffffffffffffffffffffffffffffffff1690806001018054610f7a90612d58565b80601f0160208091040260200160405190810160405280929190818152602001828054610fa690612d58565b8015610ff35780601f10610fc857610100808354040283529160200191610ff3565b820191906000526020600020905b815481529060010190602001808311610fd657829003601f168201915b5050505050908060020154908060030154905084565b6000600560008473ffffffffffffffffffffffffffffffffffffffff1673ffffffffffffffffffffffffffffffffffffffff16815260200190815260200160002060008373ffffffffffffffffffffffffffffffffffffffff1673ffffffffffffffffffffffffffffffffffffffff16815260200190815260200160002060009054906101000a900460ff16905092915050565b600060606000806110ad85611d2e565b6110ec576040517f08c379a00000000000000000000000000000000000000000000000000000000081526004016110e3906134d0565b60405180910390fd5b6000600960008781526020019081526020016000206040518060800160405290816000820160009054906101000a900473ffffffffffffffffffffffffffffffffffffffff1673ffffffffffffffffffffffffffffffffffffffff1673ffffffffffffffffffffffffffffffffffffffff16815260200160018201805461117290612d58565b80601f016020809104026020016040519081016040528092919081815260200182805461119e90612d58565b80156111eb5780601f106111c0576101008083540402835291602001916111eb565b820191906000526020600020905b8154815290600101906020018083116111ce57829003601f168201915b5050505050815260200160028201548152602001600382015481525050905080600001518160200151826040015183606001519450945094509450509193509193565b6112366118bd565b600073ffffffffffffffffffffffffffffffffffffffff168173ffffffffffffffffffffffffffffffffffffffff16036112a5576040517f08c379a000000000000000000000000000000000000000000000000000000000815260040161129c90613562565b60405180910390fd5b6112ae8161193b565b50565b60007f80ac58cd000000000000000000000000000000000000000000000000000000007bffffffffffffffffffffffffffffffffffffffffffffffffffffffff1916827bffffffffffffffffffffffffffffffffffffffffffffffffffffffff1916148061137c57507f5b5e139f000000000000000000000000000000000000000000000000000000007bffffffffffffffffffffffffffffffffffffffffffffffffffffffff1916827bffffffffffffffffffffffffffffffffffffffffffffffffffffffff1916145b8061138c575061138b82611d6f565b5b9050919050565b61139c81611d2e565b6113db576040517f08c379a00000000000000000000000000000000000000000000000000000000081526004016113d290613063565b60405180910390fd5b50565b600033905090565b816004600083815260200190815260200160002060006101000a81548173ffffffffffffffffffffffffffffffffffffffff021916908373ffffffffffffffffffffffffffffffffffffffff160217905550808273ffffffffffffffffffffffffffffffffffffffff1661145983610855565b73ffffffffffffffffffffffffffffffffffffffff167f8c5be1e5ebec7d5bd14f71427d1e84f3dd0314c0f7b2291e5b200ac8c7c3b92560405160405180910390a45050565b6000806114ab83610855565b90508073ffffffffffffffffffffffffffffffffffffffff168473ffffffffffffffffffffffffffffffffffffffff1614806114ed57506114ec8185611009565b5b8061152b57508373ffffffffffffffffffffffffffffffffffffffff1661151384610563565b73ffffffffffffffffffffffffffffffffffffffff16145b91505092915050565b8273ffffffffffffffffffffffffffffffffffffffff1661155482610855565b73ffffffffffffffffffffffffffffffffffffffff16146115aa576040517f08c379a00000000000000000000000000000000000000000000000000000000081526004016115a1906135f4565b60405180910390fd5b600073ffffffffffffffffffffffffffffffffffffffff168273ffffffffffffffffffffffffffffffffffffffff1603611619576040517f08c379a000000000000000000000000000000000000000000000000000000000815260040161161090613686565b60405180910390fd5b6116268383836001611dd9565b8273ffffffffffffffffffffffffffffffffffffffff1661164682610855565b73ffffffffffffffffffffffffffffffffffffffff161461169c576040517f08c379a0000000000000000000000000000000000000000000000000000000008152600401611693906135f4565b60405180910390fd5b6004600082815260200190815260200160002060006101000a81549073ffffffffffffffffffffffffffffffffffffffff02191690556001600360008573ffffffffffffffffffffffffffffffffffffffff1673ffffffffffffffffffffffffffffffffffffffff168152602001908152602001600020600082825403925050819055506001600360008473ffffffffffffffffffffffffffffffffffffffff1673ffffffffffffffffffffffffffffffffffffffff16815260200190815260200160002060008282540192505081905550816002600083815260200190815260200160002060006101000a81548173ffffffffffffffffffffffffffffffffffffffff021916908373ffffffffffffffffffffffffffffffffffffffff160217905550808273ffffffffffffffffffffffffffffffffffffffff168473ffffffffffffffffffffffffffffffffffffffff167fddf252ad1be2c89b69c2b068fc378daa952ba7f163c4a11628f55a4df523b3ef60405160405180910390a46118288383836001611ddf565b505050565b60006002600083815260200190815260200160002060009054906101000a900473ffffffffffffffffffffffffffffffffffffffff169050919050565b61187381611de5565b600060066000838152602001908152602001600020805461189390612d58565b9050146118ba576006600082815260200190815260200160002060006118b99190612576565b5b50565b6118c56113de565b73ffffffffffffffffffffffffffffffffffffffff166118e3610a8f565b73ffffffffffffffffffffffffffffffffffffffff1614611939576040517f08c379a0000000000000000000000000000000000000000000000000000000008152600401611930906136f2565b60405180910390fd5b565b6000600760009054906101000a900473ffffffffffffffffffffffffffffffffffffffff16905081600760006101000a81548173ffffffffffffffffffffffffffffffffffffffff021916908373ffffffffffffffffffffffffffffffffffffffff1602179055508173ffffffffffffffffffffffffffffffffffffffff168173ffffffffffffffffffffffffffffffffffffffff167f8be0079c531659141344cd1fd0a4f28419497f9722a3daafe3b4186f6b6457e060405160405180910390a35050565b8173ffffffffffffffffffffffffffffffffffffffff168373ffffffffffffffffffffffffffffffffffffffff1603611a6f576040517f08c379a0000000000000000000000000000000000000000000000000000000008152600401611a669061375e565b60405180910390fd5b80600560008573ffffffffffffffffffffffffffffffffffffffff1673ffffffffffffffffffffffffffffffffffffffff16815260200190815260200160002060008473ffffffffffffffffffffffffffffffffffffffff1673ffffffffffffffffffffffffffffffffffffffff16815260200190815260200160002060006101000a81548160ff0219169083151502179055508173ffffffffffffffffffffffffffffffffffffffff168373ffffffffffffffffffffffffffffffffffffffff167f17307eab39ab6107e8899845ad3d59bd9653f200f220920489ca2b5937696c3183604051611b609190612687565b60405180910390a3505050565b611b78848484611534565b611b8484848484611f33565b611bc3576040517f08c379a0000000000000000000000000000000000000000000000000000000008152600401611bba906137f0565b60405180910390fd5b50505050565b606060405180602001604052806000815250905090565b6060611beb82611393565b6000611bf5611bc9565b90506000815111611c155760405180602001604052806000815250611c40565b80611c1f846120ba565b604051602001611c30929190613188565b6040516020818303038152906040525b915050919050565b600081600001549050919050565b6001816000016000828254019250508190555050565b611c86828260405180602001604052806000815250612188565b5050565b611c9382611d2e565b611cd2576040517f08c379a0000000000000000000000000000000000000000000000000000000008152600401611cc990613882565b60405180910390fd5b80600660008481526020019081526020016000209081611cf29190613358565b507ff8e1a15aba9398e019f0b49df1a4fde98ee17ae345cb5f6b5e2c27f5033e8ce782604051611d22919061294e565b60405180910390a15050565b60008073ffffffffffffffffffffffffffffffffffffffff16611d508361182d565b73ffffffffffffffffffffffffffffffffffffffff1614159050919050565b60007f01ffc9a7000000000000000000000000000000000000000000000000000000007bffffffffffffffffffffffffffffffffffffffffffffffffffffffff1916827bffffffffffffffffffffffffffffffffffffffffffffffffffffffff1916149050919050565b50505050565b50505050565b6000611df082610855565b9050611e00816000846001611dd9565b611e0982610855565b90506004600083815260200190815260200160002060006101000a81549073ffffffffffffffffffffffffffffffffffffffff02191690556001600360008373ffffffffffffffffffffffffffffffffffffffff1673ffffffffffffffffffffffffffffffffffffffff168152602001908152602001600020600082825403925050819055506002600083815260200190815260200160002060006101000a81549073ffffffffffffffffffffffffffffffffffffffff021916905581600073ffffffffffffffffffffffffffffffffffffffff168273ffffffffffffffffffffffffffffffffffffffff167fddf252ad1be2c89b69c2b068fc378daa952ba7f163c4a11628f55a4df523b3ef60405160405180910390a4611f2f816000846001611ddf565b5050565b6000611f548473ffffffffffffffffffffffffffffffffffffffff166121e3565b156120ad578373ffffffffffffffffffffffffffffffffffffffff1663150b7a02611f7d6113de565b8786866040518563ffffffff1660e01b8152600401611f9f94939291906138f7565b6020604051808303816000875af1925050508015611fdb57506040513d601f19601f82011682018060405250810190611fd89190613958565b60015b61205d573d806000811461200b576040519150601f19603f3d011682016040523d82523d6000602084013e612010565b606091505b506000815103612055576040517f08c379a000000000000000000000000000000000000000000000000000000000815260040161204c906137f0565b60405180910390fd5b805181602001fd5b63150b7a0260e01b7bffffffffffffffffffffffffffffffffffffffffffffffffffffffff1916817bffffffffffffffffffffffffffffffffffffffffffffffffffffffff1916149150506120b2565b600190505b949350505050565b6060600060016120c984612206565b01905060008167ffffffffffffffff8111156120e8576120e76129df565b5b6040519080825280601f01601f19166020018201604052801561211a5781602001600182028036833780820191505090505b509050600082602001820190505b60011561217d578080600190039150507f3031323334353637383961626364656600000000000000000000000000000000600a86061a8153600a858161217157612170613985565b5b04945060008503612128575b819350505050919050565b6121928383612359565b61219f6000848484611f33565b6121de576040517f08c379a00000000000000000000000000000000000000000000000000000000081526004016121d5906137f0565b60405180910390fd5b505050565b6000808273ffffffffffffffffffffffffffffffffffffffff163b119050919050565b600080600090507a184f03e93ff9f4daa797ed6e38ed64bf6a1f0100000000000000008310612264577a184f03e93ff9f4daa797ed6e38ed64bf6a1f010000000000000000838161225a57612259613985565b5b0492506040810190505b6d04ee2d6d415b85acef810000000083106122a1576d04ee2d6d415b85acef8100000000838161229757612296613985565b5b0492506020810190505b662386f26fc1000083106122d057662386f26fc1000083816122c6576122c5613985565b5b0492506010810190505b6305f5e10083106122f9576305f5e10083816122ef576122ee613985565b5b0492506008810190505b612710831061231e57612710838161231457612313613985565b5b0492506004810190505b60648310612341576064838161233757612336613985565b5b0492506002810190505b600a8310612350576001810190505b80915050919050565b600073ffffffffffffffffffffffffffffffffffffffff168273ffffffffffffffffffffffffffffffffffffffff16036123c8576040517f08c379a00000000000000000000000000000000000000000000000000000000081526004016123bf90613a00565b60405180910390fd5b6123d181611d2e565b15612411576040517f08c379a000000000000000000000000000000000000000000000000000000000815260040161240890613a6c565b60405180910390fd5b61241f600083836001611dd9565b61242881611d2e565b15612468576040517f08c379a000000000000000000000000000000000000000000000000000000000815260040161245f90613a6c565b60405180910390fd5b6001600360008473ffffffffffffffffffffffffffffffffffffffff1673ffffffffffffffffffffffffffffffffffffffff16815260200190815260200160002060008282540192505081905550816002600083815260200190815260200160002060006101000a81548173ffffffffffffffffffffffffffffffffffffffff021916908373ffffffffffffffffffffffffffffffffffffffff160217905550808273ffffffffffffffffffffffffffffffffffffffff16600073ffffffffffffffffffffffffffffffffffffffff167fddf252ad1be2c89b69c2b068fc378daa952ba7f163c4a11628f55a4df523b3ef60405160405180910390a4612572600083836001611ddf565b5050565b50805461258290612d58565b6000825580601f1061259457506125b3565b601f0160209004906000526020600020908101906125b291906125b6565b5b50565b5b808211156125cf5760008160009055506001016125b7565b5090565b6000604051905090565b600080fd5b600080fd5b60007fffffffff0000000000000000000000000000000000000000000000000000000082169050919050565b61261c816125e7565b811461262757600080fd5b50565b60008135905061263981612613565b92915050565b600060208284031215612655576126546125dd565b5b60006126638482850161262a565b91505092915050565b60008115159050919050565b6126818161266c565b82525050565b600060208201905061269c6000830184612678565b92915050565b600081519050919050565b600082825260208201905092915050565b60005b838110156126dc5780820151818401526020810190506126c1565b60008484015250505050565b6000601f19601f8301169050919050565b6000612704826126a2565b61270e81856126ad565b935061271e8185602086016126be565b612727816126e8565b840191505092915050565b6000602082019050818103600083015261274c81846126f9565b905092915050565b6000819050919050565b61276781612754565b811461277257600080fd5b50565b6000813590506127848161275e565b92915050565b6000602082840312156127a05761279f6125dd565b5b60006127ae84828501612775565b91505092915050565b600073ffffffffffffffffffffffffffffffffffffffff82169050919050565b60006127e2826127b7565b9050919050565b6127f2816127d7565b82525050565b600060208201905061280d60008301846127e9565b92915050565b61281c816127d7565b811461282757600080fd5b50565b60008135905061283981612813565b92915050565b60008060408385031215612856576128556125dd565b5b60006128648582860161282a565b925050602061287585828601612775565b9150509250929050565b600080600060608486031215612898576128976125dd565b5b60006128a68682870161282a565b93505060206128b78682870161282a565b92505060406128c886828701612775565b9150509250925092565b600080604083850312156128e9576128e86125dd565b5b60006128f785828601612775565b925050602061290885828601612775565b9150509250929050565b600060208284031215612928576129276125dd565b5b60006129368482850161282a565b91505092915050565b61294881612754565b82525050565b6000602082019050612963600083018461293f565b92915050565b6129728161266c565b811461297d57600080fd5b50565b60008135905061298f81612969565b92915050565b600080604083850312156129ac576129ab6125dd565b5b60006129ba8582860161282a565b92505060206129cb85828601612980565b9150509250929050565b600080fd5b600080fd5b7f4e487b7100000000000000000000000000000000000000000000000000000000600052604160045260246000fd5b612a17826126e8565b810181811067ffffffffffffffff82111715612a3657612a356129df565b5b80604052505050565b6000612a496125d3565b9050612a558282612a0e565b919050565b600067ffffffffffffffff821115612a7557612a746129df565b5b612a7e826126e8565b9050602081019050919050565b82818337600083830152505050565b6000612aad612aa884612a5a565b612a3f565b905082815260208101848484011115612ac957612ac86129da565b5b612ad4848285612a8b565b509392505050565b600082601f830112612af157612af06129d5565b5b8135612b01848260208601612a9a565b91505092915050565b60008060008060808587031215612b2457612b236125dd565b5b6000612b328782880161282a565b9450506020612b438782880161282a565b9350506040612b5487828801612775565b925050606085013567ffffffffffffffff811115612b7557612b746125e2565b5b612b8187828801612adc565b91505092959194509250565b600067ffffffffffffffff821115612ba857612ba76129df565b5b612bb1826126e8565b9050602081019050919050565b6000612bd1612bcc84612b8d565b612a3f565b905082815260208101848484011115612bed57612bec6129da565b5b612bf8848285612a8b565b509392505050565b600082601f830112612c1557612c146129d5565b5b8135612c25848260208601612bbe565b91505092915050565b600080600060608486031215612c4757612c466125dd565b5b600084013567ffffffffffffffff811115612c6557612c646125e2565b5b612c7186828701612c00565b9350506020612c8286828701612775565b9250506040612c9386828701612775565b9150509250925092565b6000608082019050612cb260008301876127e9565b8181036020830152612cc481866126f9565b9050612cd3604083018561293f565b612ce0606083018461293f565b95945050505050565b60008060408385031215612d0057612cff6125dd565b5b6000612d0e8582860161282a565b9250506020612d1f8582860161282a565b9150509250929050565b7f4e487b7100000000000000000000000000000000000000000000000000000000600052602260045260246000fd5b60006002820490506001821680612d7057607f821691505b602082108103612d8357612d82612d29565b5b50919050565b7f4552433732313a20617070726f76616c20746f2063757272656e74206f776e6560008201527f7200000000000000000000000000000000000000000000000000000000000000602082015250565b6000612de56021836126ad565b9150612df082612d89565b604082019050919050565b60006020820190508181036000830152612e1481612dd8565b9050919050565b7f4552433732313a20617070726f76652063616c6c6572206973206e6f7420746f60008201527f6b656e206f776e6572206f7220617070726f76656420666f7220616c6c000000602082015250565b6000612e77603d836126ad565b9150612e8282612e1b565b604082019050919050565b60006020820190508181036000830152612ea681612e6a565b9050919050565b7f4552433732313a2063616c6c6572206973206e6f7420746f6b656e206f776e6560008201527f72206f7220617070726f76656400000000000000000000000000000000000000602082015250565b6000612f09602d836126ad565b9150612f1482612ead565b604082019050919050565b60006020820190508181036000830152612f3881612efc565b9050919050565b7f43616c6c6572206973206e6f74206f776e6572206e6f7220617070726f766564600082015250565b6000612f756020836126ad565b9150612f8082612f3f565b602082019050919050565b60006020820190508181036000830152612fa481612f68565b9050919050565b7f526f79616c74792063616e6e6f74206578636565642031303025000000000000600082015250565b6000612fe1601a836126ad565b9150612fec82612fab565b602082019050919050565b6000602082019050818103600083015261301081612fd4565b9050919050565b7f4552433732313a20696e76616c696420746f6b656e2049440000000000000000600082015250565b600061304d6018836126ad565b915061305882613017565b602082019050919050565b6000602082019050818103600083015261307c81613040565b9050919050565b7f4552433732313a2061646472657373207a65726f206973206e6f74206120766160008201527f6c6964206f776e65720000000000000000000000000000000000000000000000602082015250565b60006130df6029836126ad565b91506130ea82613083565b604082019050919050565b6000602082019050818103600083015261310e816130d2565b9050919050565b600060608201905061312a600083018661293f565b61313760208301856127e9565b61314460408301846127e9565b949350505050565b600081905092915050565b6000613162826126a2565b61316c818561314c565b935061317c8185602086016126be565b80840191505092915050565b60006131948285613157565b91506131a08284613157565b91508190509392505050565b60008190508160005260206000209050919050565b60006020601f8301049050919050565b600082821b905092915050565b60006008830261320e7fffffffffffffffffffffffffffffffffffffffffffffffffffffffffffffffff826131d1565b61321886836131d1565b95508019841693508086168417925050509392505050565b6000819050919050565b600061325561325061324b84612754565b613230565b612754565b9050919050565b6000819050919050565b61326f8361323a565b61328361327b8261325c565b8484546131de565b825550505050565b600090565b61329861328b565b6132a3818484613266565b505050565b5b818110156132c7576132bc600082613290565b6001810190506132a9565b5050565b601f82111561330c576132dd816131ac565b6132e6846131c1565b810160208510156132f5578190505b613309613301856131c1565b8301826132a8565b50505b505050565b600082821c905092915050565b600061332f60001984600802613311565b1980831691505092915050565b6000613348838361331e565b9150826002028217905092915050565b613361826126a2565b67ffffffffffffffff81111561337a576133796129df565b5b6133848254612d58565b61338f8282856132cb565b600060209050601f8311600181146133c257600084156133b0578287015190505b6133ba858261333c565b865550613422565b601f1984166133d0866131ac565b60005b828110156133f8578489015182556001820191506020850194506020810190506133d3565b868310156134155784890151613411601f89168261331e565b8355505b6001600288020188555050505b505050505050565b600060a08201905061343f600083018861293f565b61344c60208301876127e9565b818103604083015261345e81866126f9565b905061346d606083018561293f565b61347a608083018461293f565b9695505050505050565b7f546f6b656e20646f6573206e6f74206578697374000000000000000000000000600082015250565b60006134ba6014836126ad565b91506134c582613484565b602082019050919050565b600060208201905081810360008301526134e9816134ad565b9050919050565b7f4f776e61626c653a206e6577206f776e657220697320746865207a65726f206160008201527f6464726573730000000000000000000000000000000000000000000000000000602082015250565b600061354c6026836126ad565b9150613557826134f0565b604082019050919050565b6000602082019050818103600083015261357b8161353f565b9050919050565b7f4552433732313a207472616e736665722066726f6d20696e636f72726563742060008201527f6f776e6572000000000000000000000000000000000000000000000000000000602082015250565b60006135de6025836126ad565b91506135e982613582565b604082019050919050565b6000602082019050818103600083015261360d816135d1565b9050919050565b7f4552433732313a207472616e7366657220746f20746865207a65726f2061646460008201527f7265737300000000000000000000000000000000000000000000000000000000602082015250565b60006136706024836126ad565b915061367b82613614565b604082019050919050565b6000602082019050818103600083015261369f81613663565b9050919050565b7f4f776e61626c653a2063616c6c6572206973206e6f7420746865206f776e6572600082015250565b60006136dc6020836126ad565b91506136e7826136a6565b602082019050919050565b6000602082019050818103600083015261370b816136cf565b9050919050565b7f4552433732313a20617070726f766520746f2063616c6c657200000000000000600082015250565b60006137486019836126ad565b915061375382613712565b602082019050919050565b600060208201905081810360008301526137778161373b565b9050919050565b7f4552433732313a207472616e7366657220746f206e6f6e20455243373231526560008201527f63656976657220696d706c656d656e7465720000000000000000000000000000602082015250565b60006137da6032836126ad565b91506137e58261377e565b604082019050919050565b60006020820190508181036000830152613809816137cd565b9050919050565b7f45524337323155524953746f726167653a2055524920736574206f66206e6f6e60008201527f6578697374656e7420746f6b656e000000000000000000000000000000000000602082015250565b600061386c602e836126ad565b915061387782613810565b604082019050919050565b6000602082019050818103600083015261389b8161385f565b9050919050565b600081519050919050565b600082825260208201905092915050565b60006138c9826138a2565b6138d381856138ad565b93506138e38185602086016126be565b6138ec816126e8565b840191505092915050565b600060808201905061390c60008301876127e9565b61391960208301866127e9565b613926604083018561293f565b818103606083015261393881846138be565b905095945050505050565b60008151905061395281612613565b92915050565b60006020828403121561396e5761396d6125dd565b5b600061397c84828501613943565b91505092915050565b7f4e487b7100000000000000000000000000000000000000000000000000000000600052601260045260246000fd5b7f4552433732313a206d696e7420746f20746865207a65726f2061646472657373600082015250565b60006139ea6020836126ad565b91506139f5826139b4565b602082019050919050565b60006020820190508181036000830152613a19816139dd565b9050919050565b7f4552433732313a20746f6b656e20616c7265616479206d696e74656400000000600082015250565b6000613a56601c836126ad565b9150613a6182613a20565b602082019050919050565b60006020820190508181036000830152613a8581613a49565b905091905056fea26469706673582212206445041d3a93f1c3ca56acb9ba8a8b43492ebebf97281b2d37257f0b66b7db5a64736f6c63430008180033",
  "linkReferences": {},
  "deployedLinkReferences": {}
}