{
  "_format": "hh-sol-artifact-1",
  "contractName": "LandRegistry",
  "sourceName": "contracts/mintParcel.sol",
  "abi": [
    {
      "inputs": [],
      "stateMutability": "nonpayable",
      "type": "constructor"
    },
    {
      "anonymous": false,
      "inputs": [
        {
          "indexed": true,
          "internalType": "address",
          "name": "owner",
          "type": "address"
        },
        {
          "indexed": true,
          "internalType": "address",
          "name": "approved",
          "type": "address"
        },
        {
          "indexed": true,
          "internalType": "uint256",
          "name": "tokenId",
          "type": "uint256"
        }
      ],
      "name": "Approval",
      "type": "event"
    },
    {
      "anonymous": false,
      "inputs": [
        {
          "indexed": true,
          "internalType": "address",
          "name": "owner",
          "type": "address"
        },
        {
          "indexed": true,
          "internalType": "address",
          "name": "operator",
          "type": "address"
        },
        {
          "indexed": false,
          "internalType": "bool",
          "name": "approved",
          "type": "bool"
        }
      ],
      "name": "ApprovalForAll",
      "type": "event"
    },
    {
      "anonymous": false,
      "inputs": [
        {
          "indexed": false,
          "internalType": "uint256",
          "name": "_fromTokenId",
          "type": "uint256"
        },
        {
          "indexed": false,
          "internalType": "uint256",
          "name": "_toTokenId",
          "type": "uint256"
        }
      ],
      "name": "BatchMetadataUpdate",
      "type": "event"
    },
    {
      "anonymous": false,
      "inputs": [
        {
          "indexed": false,
          "internalType": "uint256",
          "name": "tokenId",
          "type": "uint256"
        }
      ],
      "name": "LandBurned",
      "type": "event"
    },
    {
      "anonymous": false,
      "inputs": [
        {
          "indexed": false,
          "internalType": "uint256",
          "name": "tokenId",
          "type": "uint256"
        },
        {
          "indexed": false,
          "internalType": "address",
          "name": "owner",
          "type": "address"
        },
        {
          "indexed": false,
          "internalType": "string",
          "name": "ipfsHash",
          "type": "string"
        },
        {
          "indexed": false,
          "internalType": "uint256",
          "name": "price",
          "type": "uint256"
        },
        {
          "indexed": false,
          "internalType": "uint256",
          "name": "royalty",
          "type": "uint256"
        }
      ],
      "name": "LandMinted",
      "type": "event"
    },
    {
      "anonymous": false,
      "inputs": [
        {
          "indexed": false,
          "internalType": "uint256",
          "name": "tokenId",
          "type": "uint256"
        },
        {
          "indexed": false,
          "internalType": "address",
          "name": "from",
          "type": "address"
        },
        {
          "indexed": false,
          "internalType": "address",
          "name": "to",
          "type": "address"
        }
      ],
      "name": "LandTransferred",
      "type": "event"
    },
    {
      "anonymous": false,
      "inputs": [
        {
          "indexed": false,
          "internalType": "uint256",
          "name": "_tokenId",
          "type": "uint256"
        }
      ],
      "name": "MetadataUpdate",
      "type": "event"
    },
    {
      "anonymous": false,
      "inputs": [
        {
          "indexed": true,
          "internalType": "address",
          "name": "previousOwner",
          "type": "address"
        },
        {
          "indexed": true,
          "internalType": "address",
          "name": "newOwner",
          "type": "address"
        }
      ],
      "name": "OwnershipTransferred",
      "type": "event"
    },
    {
      "anonymous": false,
      "inputs": [
        {
          "indexed": true,
          "internalType": "address",
          "name": "from",
          "type": "address"
        },
        {
          "indexed": true,
          "internalType": "address",
          "name": "to",
          "type": "address"
        },
        {
          "indexed": true,
          "internalType": "uint256",
          "name": "tokenId",
          "type": "uint256"
        }
      ],
      "name": "Transfer",
      "type": "event"
    },
    {
      "inputs": [
        {
          "internalType": "address",
          "name": "to",
          "type": "address"
        },
        {
          "internalType": "uint256",
          "name": "tokenId",
          "type": "uint256"
        }
      ],
      "name": "approve",
      "outputs": [],
      "stateMutability": "nonpayable",
      "type": "function"
    },
    {
      "inputs": [
        {
          "internalType": "address",
          "name": "owner",
          "type": "address"
        }
      ],
      "name": "balanceOf",
      "outputs": [
        {
          "internalType": "uint256",
          "name": "",
          "type": "uint256"
        }
      ],
      "stateMutability": "view",
      "type": "function"
    },
    {
      "inputs": [
        {
          "internalType": "uint256",
          "name": "tokenId",
          "type": "uint256"
        }
      ],
      "name": "burnLand",
      "outputs": [],
      "stateMutability": "nonpayable",
      "type": "function"
    },
    {
      "inputs": [
        {
          "internalType": "uint256",
          "name": "tokenId",
          "type": "uint256"
        }
      ],
      "name": "getApproved",
      "outputs": [
        {
          "internalType": "address",
          "name": "",
          "type": "address"
        }
      ],
      "stateMutability": "view",
      "type": "function"
    },
    {
      "inputs": [
        {
          "internalType": "uint256",
          "name": "tokenId",
          "type": "uint256"
        }
      ],
      "name": "getLand",
      "outputs": [
        {
          "internalType": "address",
          "name": "owner",
          "type": "address"
        },
        {
          "internalType": "string",
          "name": "ipfsHash",
          "type": "string"
        },
        {
          "internalType": "uint256",
          "name": "price",
          "type": "uint256"
        },
        {
          "internalType": "uint256",
          "name": "royalty",
          "type": "uint256"
        }
      ],
      "stateMutability": "view",
      "type": "function"
    },
    {
      "inputs": [
        {
          "internalType": "address",
          "name": "owner",
          "type": "address"
        },
        {
          "internalType": "address",
          "name": "operator",
          "type": "address"
        }
      ],
      "name": "isApprovedForAll",
      "outputs": [
        {
          "internalType": "bool",
          "name": "",
          "type": "bool"
        }
      ],
      "stateMutability": "view",
      "type": "function"
    },
    {
      "inputs": [
        {
          "internalType": "uint256",
          "name": "",
          "type": "uint256"
        }
      ],
      "name": "lands",
      "outputs": [
        {
          "internalType": "address",
          "name": "owner",
          "type": "address"
        },
        {
          "internalType": "string",
          "name": "ipfsHash",
          "type": "string"
        },
        {
          "internalType": "uint256",
          "name": "price",
          "type": "uint256"
        },
        {
          "internalType": "uint256",
          "name": "royalty",
          "type": "uint256"
        }
      ],
      "stateMutability": "view",
      "type": "function"
    },
    {
      "inputs": [
        {
          "internalType": "string",
          "name": "ipfsHash",
          "type": "string"
        },
        {
          "internalType": "uint256",
          "name": "price",
          "type": "uint256"
        },
        {
          "internalType": "uint256",
          "name": "royalty",
          "type": "uint256"
        }
      ],
      "name": "mintLand",
      "outputs": [],
      "stateMutability": "nonpayable",
      "type": "function"
    },
    {
      "inputs": [],
      "name": "name",
      "outputs": [
        {
          "internalType": "string",
          "name": "",
          "type": "string"
        }
      ],
      "stateMutability": "view",
      "type": "function"
    },
    {
      "inputs": [],
      "name": "owner",
      "outputs": [
        {
          "internalType": "address",
          "name": "",
          "type": "address"
        }
      ],
      "stateMutability": "view",
      "type": "function"
    },
    {
      "inputs": [
        {
          "internalType": "uint256",
          "name": "tokenId",
          "type": "uint256"
        }
      ],
      "name": "ownerOf",
      "outputs": [
        {
          "internalType": "address",
          "name": "",
          "type": "address"
        }
      ],
      "stateMutability": "view",
      "type": "function"
    },
    {
      "inputs": [],
      "name": "renounceOwnership",
      "outputs": [],
      "stateMutability": "nonpayable",
      "type": "function"
    },
    {
      "inputs": [
        {
          "internalType": "address",
          "name": "from",
          "type": "address"
        },
        {
          "internalType": "address",
          "name": "to",
          "type": "address"
        },
        {
          "internalType": "uint256",
          "name": "tokenId",
          "type": "uint256"
        }
      ],
      "name": "safeTransferFrom",
      "outputs": [],
      "stateMutability": "nonpayable",
      "type": "function"
    },
    {
      "inputs": [
        {
          "internalType": "address",
          "name": "from",
          "type": "address"
        },
        {
          "internalType": "address",
          "name": "to",
          "type": "address"
        },
        {
          "internalType": "uint256",
          "name": "tokenId",
          "type": "uint256"
        },
        {
          "internalType": "bytes",
          "name": "data",
          "type": "bytes"
        }
      ],
      "name": "safeTransferFrom",
      "outputs": [],
      "stateMutability": "nonpayable",
      "type": "function"
    },
    {
      "inputs": [
        {
          "internalType": "address",
          "name": "operator",
          "type": "address"
        },
        {
          "internalType": "bool",
          "name": "approved",
          "type": "bool"
        }
      ],
      "name": "setApprovalForAll",
      "outputs": [],
      "stateMutability": "nonpayable",
      "type": "function"
    },
    {
      "inputs": [
        {
          "internalType": "bytes4",
          "name": "interfaceId",
          "type": "bytes4"
        }
      ],
      "name": "supportsInterface",
      "outputs": [
        {
          "internalType": "bool",
          "name": "",
          "type": "bool"
        }
      ],
      "stateMutability": "view",
      "type": "function"
    },
    {
      "inputs": [],
      "name": "symbol",
      "outputs": [
        {
          "internalType": "string",
          "name": "",
          "type": "string"
        }
      ],
      "stateMutability": "view",
      "type": "function"
    },
    {
      "inputs": [
        {
          "internalType": "uint256",
          "name": "tokenId",
          "type": "uint256"
        }
      ],
      "name": "tokenURI",
      "outputs": [
        {
          "internalType": "string",
          "name": "",
          "type": "string"
        }
      ],
      "stateMutability": "view",
      "type": "function"
    },
    {
      "inputs": [
        {
          "internalType": "address",
          "name": "from",
          "type": "address"
        },
        {
          "internalType": "address",
          "name": "to",
          "type": "address"
        },
        {
          "internalType": "uint256",
          "name": "tokenId",
          "type": "uint256"
        }
      ],
      "name": "transferFrom",
      "outputs": [],
      "stateMutability": "nonpayable",
      "type": "function"
    },
    {
      "inputs": [
        {
          "internalType": "address",
          "name": "to",
          "type": "address"
        },
        {
          "internalType": "uint256",
          "name": "tokenId",
          "type": "uint256"
        }
      ],
      "name": "transferLand",
      "outputs": [],
      "stateMutability": "nonpayable",
      "type": "function"
    },
    {
      "inputs": [
        {
          "internalType": "address",
          "name": "newOwner",
          "type": "address"
        }
      ],
      "name": "transferOwnership",
      "outputs": [],
      "stateMutability": "nonpayable",
      "type": "function"
    },
    {
      "inputs": [
        {
          "internalType": "uint256",
          "name": "tokenId",
          "type": "uint256"
        },
        {
          "internalType": "uint256",
          "name": "newPrice",
          "type": "uint256"
        }
      ],
      "name": "updateLandPrice",
      "outputs": [],
      "stateMutability": "nonpayable",
      "type": "function"
    },
    {
      "inputs": [
        {
          "internalType": "uint256",
          "name": "tokenId",
          "type": "uint256"
        },
        {
          "internalType": "uint256",
          "name": "newRoyalty",
          "type": "uint256"
        }
      ],
      "name": "updateLandRoyalty",
      "outputs": [],
      "stateMutability": "nonpayable",
      "type": "function"
    }
  ],
  "bytecode": "0x60806040523480156200001157600080fd5b506040518060400160405280600c81526020017f4c616e64526567697374727900000000000000000000000000000000000000008152506040518060400160405280600481526020017f4c414e440000000000000000000000000000000000000000000000000000000081525081600090816200008f919062000412565b508060019081620000a1919062000412565b505050620000c4620000b8620000ca60201b60201c565b620000d260201b60201c565b620004f9565b600033905090565b6000600760009054906101000a900473ffffffffffffffffffffffffffffffffffffffff16905081600760006101000a81548173ffffffffffffffffffffffffffffffffffffffff021916908373ffffffffffffffffffffffffffffffffffffffff1602179055508173ffffffffffffffffffffffffffffffffffffffff168173ffffffffffffffffffffffffffffffffffffffff167f8be0079c531659141344cd1fd0a4f28419497f9722a3daafe3b4186f6b6457e060405160405180910390a35050565b600081519050919050565b7f4e487b7100000000000000000000000000000000000000000000000000000000600052604160045260246000fd5b7f4e487b7100000000000000000000000000000000000000000000000000000000600052602260045260246000fd5b600060028204905060018216806200021a57607f821691505b60208210810362000230576200022f620001d2565b5b50919050565b60008190508160005260206000209050919050565b60006020601f8301049050919050565b600082821b905092915050565b6000600883026200029a7fffffffffffffffffffffffffffffffffffffffffffffffffffffffffffffffff826200025b565b620002a686836200025b565b95508019841693508086168417925050509392505050565b6000819050919050565b6000819050919050565b6000620002f3620002ed620002e784620002be565b620002c8565b620002be565b9050919050565b6000819050919050565b6200030f83620002d2565b620003276200031e82620002fa565b84845462000268565b825550505050565b600090565b6200033e6200032f565b6200034b81848462000304565b505050565b5b8181101562000373576200036760008262000334565b60018101905062000351565b5050565b601f821115620003c2576200038c8162000236565b62000397846200024b565b81016020851015620003a7578190505b620003bf620003b6856200024b565b83018262000350565b50505b505050565b600082821c905092915050565b6000620003e760001984600802620003c7565b1980831691505092915050565b6000620004028383620003d4565b9150826002028217905092915050565b6200041d8262000198565b67ffffffffffffffff811115620004395762000438620001a3565b5b62000445825462000201565b6200045282828562000377565b600060209050601f8311600181146200048a576000841562000475578287015190505b620004818582620003f4565b865550620004f1565b601f1984166200049a8662000236565b60005b82811015620004c4578489015182556001820191506020850194506020810190506200049d565b86831015620004e45784890151620004e0601f891682620003d4565b8355505b6001600288020188555050505b505050505050565b613ac080620005096000396000f3fe608060405234801561001057600080fd5b506004361061014d5760003560e01c8063715018a6116100c3578063c87b56dd1161007c578063c87b56dd14610372578063d9883617146103a2578063e261f1e5146103be578063e985e9c5146103f1578063f02dd53f14610421578063f2fde38b146104545761014d565b8063715018a6146102d85780638da5cb5b146102e257806395d89b4114610300578063a22cb4651461031e578063b3f40d6a1461033a578063b88d4fde146103565761014d565b80633e4c52ba116101155780633e4c52ba1461020857806342842e0e146102245780634c33fbb7146102405780636352211e1461025c5780636613221f1461028c57806370a08231146102a85761014d565b806301ffc9a71461015257806306fdde0314610182578063081812fc146101a0578063095ea7b3146101d057806323b872dd146101ec575b600080fd5b61016c6004803603810190610167919061263d565b610470565b6040516101799190612685565b60405180910390f35b61018a6104d1565b6040516101979190612730565b60405180910390f35b6101ba60048036038101906101b59190612788565b610563565b6040516101c791906127f6565b60405180910390f35b6101ea60048036038101906101e5919061283d565b6105a9565b005b6102066004803603810190610201919061287d565b6106c0565b005b610222600480360381019061021d91906128d0565b610720565b005b61023e6004803603810190610239919061287d565b6107cc565b005b61025a600480360381019061025591906128d0565b6107ec565b005b61027660048036038101906102719190612788565b610854565b60405161028391906127f6565b60405180910390f35b6102a660048036038101906102a19190612788565b6108da565b005b6102c260048036038101906102bd9190612910565b6109c3565b6040516102cf919061294c565b60405180910390f35b6102e0610a7a565b005b6102ea610a8e565b6040516102f791906127f6565b60405180910390f35b610308610ab8565b6040516103159190612730565b60405180910390f35b61033860048036038101906103339190612993565b610b4a565b005b610354600480360381019061034f919061283d565b610b60565b005b610370600480360381019061036b9190612b08565b610c48565b005b61038c60048036038101906103879190612788565b610caa565b6040516103999190612730565b60405180910390f35b6103bc60048036038101906103b79190612c2c565b610dbc565b005b6103d860048036038101906103d39190612788565b610f2f565b6040516103e89493929190612c9b565b60405180910390f35b61040b60048036038101906104069190612ce7565b611007565b6040516104189190612685565b60405180910390f35b61043b60048036038101906104369190612788565b61109b565b60405161044b9493929190612c9b565b60405180910390f35b61046e60048036038101906104699190612910565b61122c565b005b6000634906490660e01b7bffffffffffffffffffffffffffffffffffffffffffffffffffffffff1916827bffffffffffffffffffffffffffffffffffffffffffffffffffffffff191614806104ca57506104c9826112af565b5b9050919050565b6060600080546104e090612d56565b80601f016020809104026020016040519081016040528092919081815260200182805461050c90612d56565b80156105595780601f1061052e57610100808354040283529160200191610559565b820191906000526020600020905b81548152906001019060200180831161053c57829003601f168201915b5050505050905090565b600061056e82611391565b6004600083815260200190815260200160002060009054906101000a900473ffffffffffffffffffffffffffffffffffffffff169050919050565b60006105b482610854565b90508073ffffffffffffffffffffffffffffffffffffffff168373ffffffffffffffffffffffffffffffffffffffff1603610624576040517f08c379a000000000000000000000000000000000000000000000000000000000815260040161061b90612df9565b60405180910390fd5b8073ffffffffffffffffffffffffffffffffffffffff166106436113dc565b73ffffffffffffffffffffffffffffffffffffffff16148061067257506106718161066c6113dc565b611007565b5b6106b1576040517f08c379a00000000000000000000000000000000000000000000000000000000081526004016106a890612e8b565b60405180910390fd5b6106bb83836113e4565b505050565b6106d16106cb6113dc565b8261149d565b610710576040517f08c379a000000000000000000000000000000000000000000000000000000000815260040161070790612f1d565b60405180910390fd5b61071b838383611532565b505050565b61072a338361149d565b610769576040517f08c379a000000000000000000000000000000000000000000000000000000000815260040161076090612f89565b60405180910390fd5b60648111156107ad576040517f08c379a00000000000000000000000000000000000000000000000000000000081526004016107a490612ff5565b60405180910390fd5b8060096000848152602001908152602001600020600301819055505050565b6107e783838360405180602001604052806000815250610c48565b505050565b6107f6338361149d565b610835576040517f08c379a000000000000000000000000000000000000000000000000000000000815260040161082c90612f89565b60405180910390fd5b8060096000848152602001908152602001600020600201819055505050565b6000806108608361182b565b9050600073ffffffffffffffffffffffffffffffffffffffff168173ffffffffffffffffffffffffffffffffffffffff16036108d1576040517f08c379a00000000000000000000000000000000000000000000000000000000081526004016108c890613061565b60405180910390fd5b80915050919050565b6108e4338261149d565b610923576040517f08c379a000000000000000000000000000000000000000000000000000000000815260040161091a90612f89565b60405180910390fd5b61092c81611868565b60096000828152602001908152602001600020600080820160006101000a81549073ffffffffffffffffffffffffffffffffffffffff02191690556001820160006109779190612574565b6002820160009055600382016000905550507f08051f3c22a89639dd1c7b865ac3dfce20fd7dfdf3e825f275e2a7d26ef18210816040516109b8919061294c565b60405180910390a150565b60008073ffffffffffffffffffffffffffffffffffffffff168273ffffffffffffffffffffffffffffffffffffffff1603610a33576040517f08c379a0000000000000000000000000000000000000000000000000000000008152600401610a2a906130f3565b60405180910390fd5b600360008373ffffffffffffffffffffffffffffffffffffffff1673ffffffffffffffffffffffffffffffffffffffff168152602001908152602001600020549050919050565b610a826118bb565b610a8c6000611939565b565b6000600760009054906101000a900473ffffffffffffffffffffffffffffffffffffffff16905090565b606060018054610ac790612d56565b80601f0160208091040260200160405190810160405280929190818152602001828054610af390612d56565b8015610b405780601f10610b1557610100808354040283529160200191610b40565b820191906000526020600020905b815481529060010190602001808311610b2357829003601f168201915b5050505050905090565b610b5c610b556113dc565b83836119ff565b5050565b610b6a338261149d565b610ba9576040517f08c379a0000000000000000000000000000000000000000000000000000000008152600401610ba090612f89565b60405180910390fd5b610bb4338383611532565b816009600083815260200190815260200160002060000160006101000a81548173ffffffffffffffffffffffffffffffffffffffff021916908373ffffffffffffffffffffffffffffffffffffffff1602179055507f1080b2f211753e5090f26ef7ffdc6bb3e66a125c7290200d10b502160bb1f566813384604051610c3c93929190613113565b60405180910390a15050565b610c59610c536113dc565b8361149d565b610c98576040517f08c379a0000000000000000000000000000000000000000000000000000000008152600401610c8f90612f1d565b60405180910390fd5b610ca484848484611b6b565b50505050565b6060610cb582611391565b6000600660008481526020019081526020016000208054610cd590612d56565b80601f0160208091040260200160405190810160405280929190818152602001828054610d0190612d56565b8015610d4e5780601f10610d2357610100808354040283529160200191610d4e565b820191906000526020600020905b815481529060010190602001808311610d3157829003601f168201915b505050505090506000610d5f611bc7565b90506000815103610d74578192505050610db7565b600082511115610da9578082604051602001610d91929190613186565b60405160208183030381529060405292505050610db7565b610db284611bde565b925050505b919050565b6064811115610e00576040517f08c379a0000000000000000000000000000000000000000000000000000000008152600401610df790612ff5565b60405180910390fd5b6000610e0c6008611c46565b9050610e186008611c54565b610e223382611c6a565b610e2c8185611c88565b60405180608001604052803373ffffffffffffffffffffffffffffffffffffffff168152602001858152602001848152602001838152506009600083815260200190815260200160002060008201518160000160006101000a81548173ffffffffffffffffffffffffffffffffffffffff021916908373ffffffffffffffffffffffffffffffffffffffff1602179055506020820151816001019081610ed29190613356565b5060408201518160020155606082015181600301559050507f2a2c5d03cac260703025d4789111de009bdbb086ae9811955ea87acd610bc4b78133868686604051610f21959493929190613428565b60405180910390a150505050565b60096020528060005260406000206000915090508060000160009054906101000a900473ffffffffffffffffffffffffffffffffffffffff1690806001018054610f7890612d56565b80601f0160208091040260200160405190810160405280929190818152602001828054610fa490612d56565b8015610ff15780601f10610fc657610100808354040283529160200191610ff1565b820191906000526020600020905b815481529060010190602001808311610fd457829003601f168201915b5050505050908060020154908060030154905084565b6000600560008473ffffffffffffffffffffffffffffffffffffffff1673ffffffffffffffffffffffffffffffffffffffff16815260200190815260200160002060008373ffffffffffffffffffffffffffffffffffffffff1673ffffffffffffffffffffffffffffffffffffffff16815260200190815260200160002060009054906101000a900460ff16905092915050565b600060606000806110ab85611d2c565b6110ea576040517f08c379a00000000000000000000000000000000000000000000000000000000081526004016110e1906134ce565b60405180910390fd5b6000600960008781526020019081526020016000206040518060800160405290816000820160009054906101000a900473ffffffffffffffffffffffffffffffffffffffff1673ffffffffffffffffffffffffffffffffffffffff1673ffffffffffffffffffffffffffffffffffffffff16815260200160018201805461117090612d56565b80601f016020809104026020016040519081016040528092919081815260200182805461119c90612d56565b80156111e95780601f106111be576101008083540402835291602001916111e9565b820191906000526020600020905b8154815290600101906020018083116111cc57829003601f168201915b5050505050815260200160028201548152602001600382015481525050905080600001518160200151826040015183606001519450945094509450509193509193565b6112346118bb565b600073ffffffffffffffffffffffffffffffffffffffff168173ffffffffffffffffffffffffffffffffffffffff16036112a3576040517f08c379a000000000000000000000000000000000000000000000000000000000815260040161129a90613560565b60405180910390fd5b6112ac81611939565b50565b60007f80ac58cd000000000000000000000000000000000000000000000000000000007bffffffffffffffffffffffffffffffffffffffffffffffffffffffff1916827bffffffffffffffffffffffffffffffffffffffffffffffffffffffff1916148061137a57507f5b5e139f000000000000000000000000000000000000000000000000000000007bffffffffffffffffffffffffffffffffffffffffffffffffffffffff1916827bffffffffffffffffffffffffffffffffffffffffffffffffffffffff1916145b8061138a575061138982611d6d565b5b9050919050565b61139a81611d2c565b6113d9576040517f08c379a00000000000000000000000000000000000000000000000000000000081526004016113d090613061565b60405180910390fd5b50565b600033905090565b816004600083815260200190815260200160002060006101000a81548173ffffffffffffffffffffffffffffffffffffffff021916908373ffffffffffffffffffffffffffffffffffffffff160217905550808273ffffffffffffffffffffffffffffffffffffffff1661145783610854565b73ffffffffffffffffffffffffffffffffffffffff167f8c5be1e5ebec7d5bd14f71427d1e84f3dd0314c0f7b2291e5b200ac8c7c3b92560405160405180910390a45050565b6000806114a983610854565b90508073ffffffffffffffffffffffffffffffffffffffff168473ffffffffffffffffffffffffffffffffffffffff1614806114eb57506114ea8185611007565b5b8061152957508373ffffffffffffffffffffffffffffffffffffffff1661151184610563565b73ffffffffffffffffffffffffffffffffffffffff16145b91505092915050565b8273ffffffffffffffffffffffffffffffffffffffff1661155282610854565b73ffffffffffffffffffffffffffffffffffffffff16146115a8576040517f08c379a000000000000000000000000000000000000000000000000000000000815260040161159f906135f2565b60405180910390fd5b600073ffffffffffffffffffffffffffffffffffffffff168273ffffffffffffffffffffffffffffffffffffffff1603611617576040517f08c379a000000000000000000000000000000000000000000000000000000000815260040161160e90613684565b60405180910390fd5b6116248383836001611dd7565b8273ffffffffffffffffffffffffffffffffffffffff1661164482610854565b73ffffffffffffffffffffffffffffffffffffffff161461169a576040517f08c379a0000000000000000000000000000000000000000000000000000000008152600401611691906135f2565b60405180910390fd5b6004600082815260200190815260200160002060006101000a81549073ffffffffffffffffffffffffffffffffffffffff02191690556001600360008573ffffffffffffffffffffffffffffffffffffffff1673ffffffffffffffffffffffffffffffffffffffff168152602001908152602001600020600082825403925050819055506001600360008473ffffffffffffffffffffffffffffffffffffffff1673ffffffffffffffffffffffffffffffffffffffff16815260200190815260200160002060008282540192505081905550816002600083815260200190815260200160002060006101000a81548173ffffffffffffffffffffffffffffffffffffffff021916908373ffffffffffffffffffffffffffffffffffffffff160217905550808273ffffffffffffffffffffffffffffffffffffffff168473ffffffffffffffffffffffffffffffffffffffff167fddf252ad1be2c89b69c2b068fc378daa952ba7f163c4a11628f55a4df523b3ef60405160405180910390a46118268383836001611ddd565b505050565b60006002600083815260200190815260200160002060009054906101000a900473ffffffffffffffffffffffffffffffffffffffff169050919050565b61187181611de3565b600060066000838152602001908152602001600020805461189190612d56565b9050146118b8576006600082815260200190815260200160002060006118b79190612574565b5b50565b6118c36113dc565b73ffffffffffffffffffffffffffffffffffffffff166118e1610a8e565b73ffffffffffffffffffffffffffffffffffffffff1614611937576040517f08c379a000000000000000000000000000000000000000000000000000000000815260040161192e906136f0565b60405180910390fd5b565b6000600760009054906101000a900473ffffffffffffffffffffffffffffffffffffffff16905081600760006101000a81548173ffffffffffffffffffffffffffffffffffffffff021916908373ffffffffffffffffffffffffffffffffffffffff1602179055508173ffffffffffffffffffffffffffffffffffffffff168173ffffffffffffffffffffffffffffffffffffffff167f8be0079c531659141344cd1fd0a4f28419497f9722a3daafe3b4186f6b6457e060405160405180910390a35050565b8173ffffffffffffffffffffffffffffffffffffffff168373ffffffffffffffffffffffffffffffffffffffff1603611a6d576040517f08c379a0000000000000000000000000000000000000000000000000000000008152600401611a649061375c565b60405180910390fd5b80600560008573ffffffffffffffffffffffffffffffffffffffff1673ffffffffffffffffffffffffffffffffffffffff16815260200190815260200160002060008473ffffffffffffffffffffffffffffffffffffffff1673ffffffffffffffffffffffffffffffffffffffff16815260200190815260200160002060006101000a81548160ff0219169083151502179055508173ffffffffffffffffffffffffffffffffffffffff168373ffffffffffffffffffffffffffffffffffffffff167f17307eab39ab6107e8899845ad3d59bd9653f200f220920489ca2b5937696c3183604051611b5e9190612685565b60405180910390a3505050565b611b76848484611532565b611b8284848484611f31565b611bc1576040517f08c379a0000000000000000000000000000000000000000000000000000000008152600401611bb8906137ee565b60405180910390fd5b50505050565b606060405180602001604052806000815250905090565b6060611be982611391565b6000611bf3611bc7565b90506000815111611c135760405180602001604052806000815250611c3e565b80611c1d846120b8565b604051602001611c2e929190613186565b6040516020818303038152906040525b915050919050565b600081600001549050919050565b6001816000016000828254019250508190555050565b611c84828260405180602001604052806000815250612186565b5050565b611c9182611d2c565b611cd0576040517f08c379a0000000000000000000000000000000000000000000000000000000008152600401611cc790613880565b60405180910390fd5b80600660008481526020019081526020016000209081611cf09190613356565b507ff8e1a15aba9398e019f0b49df1a4fde98ee17ae345cb5f6b5e2c27f5033e8ce782604051611d20919061294c565b60405180910390a15050565b60008073ffffffffffffffffffffffffffffffffffffffff16611d4e8361182b565b73ffffffffffffffffffffffffffffffffffffffff1614159050919050565b60007f01ffc9a7000000000000000000000000000000000000000000000000000000007bffffffffffffffffffffffffffffffffffffffffffffffffffffffff1916827bffffffffffffffffffffffffffffffffffffffffffffffffffffffff1916149050919050565b50505050565b50505050565b6000611dee82610854565b9050611dfe816000846001611dd7565b611e0782610854565b90506004600083815260200190815260200160002060006101000a81549073ffffffffffffffffffffffffffffffffffffffff02191690556001600360008373ffffffffffffffffffffffffffffffffffffffff1673ffffffffffffffffffffffffffffffffffffffff168152602001908152602001600020600082825403925050819055506002600083815260200190815260200160002060006101000a81549073ffffffffffffffffffffffffffffffffffffffff021916905581600073ffffffffffffffffffffffffffffffffffffffff168273ffffffffffffffffffffffffffffffffffffffff167fddf252ad1be2c89b69c2b068fc378daa952ba7f163c4a11628f55a4df523b3ef60405160405180910390a4611f2d816000846001611ddd565b5050565b6000611f528473ffffffffffffffffffffffffffffffffffffffff166121e1565b156120ab578373ffffffffffffffffffffffffffffffffffffffff1663150b7a02611f7b6113dc565b8786866040518563ffffffff1660e01b8152600401611f9d94939291906138f5565b6020604051808303816000875af1925050508015611fd957506040513d601f19601f82011682018060405250810190611fd69190613956565b60015b61205b573d8060008114612009576040519150601f19603f3d011682016040523d82523d6000602084013e61200e565b606091505b506000815103612053576040517f08c379a000000000000000000000000000000000000000000000000000000000815260040161204a906137ee565b60405180910390fd5b805181602001fd5b63150b7a0260e01b7bffffffffffffffffffffffffffffffffffffffffffffffffffffffff1916817bffffffffffffffffffffffffffffffffffffffffffffffffffffffff1916149150506120b0565b600190505b949350505050565b6060600060016120c784612204565b01905060008167ffffffffffffffff8111156120e6576120e56129dd565b5b6040519080825280601f01601f1916602001820160405280156121185781602001600182028036833780820191505090505b509050600082602001820190505b60011561217b578080600190039150507f3031323334353637383961626364656600000000000000000000000000000000600a86061a8153600a858161216f5761216e613983565b5b04945060008503612126575b819350505050919050565b6121908383612357565b61219d6000848484611f31565b6121dc576040517f08c379a00000000000000000000000000000000000000000000000000000000081526004016121d3906137ee565b60405180910390fd5b505050565b6000808273ffffffffffffffffffffffffffffffffffffffff163b119050919050565b600080600090507a184f03e93ff9f4daa797ed6e38ed64bf6a1f0100000000000000008310612262577a184f03e93ff9f4daa797ed6e38ed64bf6a1f010000000000000000838161225857612257613983565b5b0492506040810190505b6d04ee2d6d415b85acef8100000000831061229f576d04ee2d6d415b85acef8100000000838161229557612294613983565b5b0492506020810190505b662386f26fc1000083106122ce57662386f26fc1000083816122c4576122c3613983565b5b0492506010810190505b6305f5e10083106122f7576305f5e10083816122ed576122ec613983565b5b0492506008810190505b612710831061231c57612710838161231257612311613983565b5b0492506004810190505b6064831061233f576064838161233557612334613983565b5b0492506002810190505b600a831061234e576001810190505b80915050919050565b600073ffffffffffffffffffffffffffffffffffffffff168273ffffffffffffffffffffffffffffffffffffffff16036123c6576040517f08c379a00000000000000000000000000000000000000000000000000000000081526004016123bd906139fe565b60405180910390fd5b6123cf81611d2c565b1561240f576040517f08c379a000000000000000000000000000000000000000000000000000000000815260040161240690613a6a565b60405180910390fd5b61241d600083836001611dd7565b61242681611d2c565b15612466576040517f08c379a000000000000000000000000000000000000000000000000000000000815260040161245d90613a6a565b60405180910390fd5b6001600360008473ffffffffffffffffffffffffffffffffffffffff1673ffffffffffffffffffffffffffffffffffffffff16815260200190815260200160002060008282540192505081905550816002600083815260200190815260200160002060006101000a81548173ffffffffffffffffffffffffffffffffffffffff021916908373ffffffffffffffffffffffffffffffffffffffff160217905550808273ffffffffffffffffffffffffffffffffffffffff16600073ffffffffffffffffffffffffffffffffffffffff167fddf252ad1be2c89b69c2b068fc378daa952ba7f163c4a11628f55a4df523b3ef60405160405180910390a4612570600083836001611ddd565b5050565b50805461258090612d56565b6000825580601f1061259257506125b1565b601f0160209004906000526020600020908101906125b091906125b4565b5b50565b5b808211156125cd5760008160009055506001016125b5565b5090565b6000604051905090565b600080fd5b600080fd5b60007fffffffff0000000000000000000000000000000000000000000000000000000082169050919050565b61261a816125e5565b811461262557600080fd5b50565b60008135905061263781612611565b92915050565b600060208284031215612653576126526125db565b5b600061266184828501612628565b91505092915050565b60008115159050919050565b61267f8161266a565b82525050565b600060208201905061269a6000830184612676565b92915050565b600081519050919050565b600082825260208201905092915050565b60005b838110156126da5780820151818401526020810190506126bf565b60008484015250505050565b6000601f19601f8301169050919050565b6000612702826126a0565b61270c81856126ab565b935061271c8185602086016126bc565b612725816126e6565b840191505092915050565b6000602082019050818103600083015261274a81846126f7565b905092915050565b6000819050919050565b61276581612752565b811461277057600080fd5b50565b6000813590506127828161275c565b92915050565b60006020828403121561279e5761279d6125db565b5b60006127ac84828501612773565b91505092915050565b600073ffffffffffffffffffffffffffffffffffffffff82169050919050565b60006127e0826127b5565b9050919050565b6127f0816127d5565b82525050565b600060208201905061280b60008301846127e7565b92915050565b61281a816127d5565b811461282557600080fd5b50565b60008135905061283781612811565b92915050565b60008060408385031215612854576128536125db565b5b600061286285828601612828565b925050602061287385828601612773565b9150509250929050565b600080600060608486031215612896576128956125db565b5b60006128a486828701612828565b93505060206128b586828701612828565b92505060406128c686828701612773565b9150509250925092565b600080604083850312156128e7576128e66125db565b5b60006128f585828601612773565b925050602061290685828601612773565b9150509250929050565b600060208284031215612926576129256125db565b5b600061293484828501612828565b91505092915050565b61294681612752565b82525050565b6000602082019050612961600083018461293d565b92915050565b6129708161266a565b811461297b57600080fd5b50565b60008135905061298d81612967565b92915050565b600080604083850312156129aa576129a96125db565b5b60006129b885828601612828565b92505060206129c98582860161297e565b9150509250929050565b600080fd5b600080fd5b7f4e487b7100000000000000000000000000000000000000000000000000000000600052604160045260246000fd5b612a15826126e6565b810181811067ffffffffffffffff82111715612a3457612a336129dd565b5b80604052505050565b6000612a476125d1565b9050612a538282612a0c565b919050565b600067ffffffffffffffff821115612a7357612a726129dd565b5b612a7c826126e6565b9050602081019050919050565b82818337600083830152505050565b6000612aab612aa684612a58565b612a3d565b905082815260208101848484011115612ac757612ac66129d8565b5b612ad2848285612a89565b509392505050565b600082601f830112612aef57612aee6129d3565b5b8135612aff848260208601612a98565b91505092915050565b60008060008060808587031215612b2257612b216125db565b5b6000612b3087828801612828565b9450506020612b4187828801612828565b9350506040612b5287828801612773565b925050606085013567ffffffffffffffff811115612b7357612b726125e0565b5b612b7f87828801612ada565b91505092959194509250565b600067ffffffffffffffff821115612ba657612ba56129dd565b5b612baf826126e6565b9050602081019050919050565b6000612bcf612bca84612b8b565b612a3d565b905082815260208101848484011115612beb57612bea6129d8565b5b612bf6848285612a89565b509392505050565b600082601f830112612c1357612c126129d3565b5b8135612c23848260208601612bbc565b91505092915050565b600080600060608486031215612c4557612c446125db565b5b600084013567ffffffffffffffff811115612c6357612c626125e0565b5b612c6f86828701612bfe565b9350506020612c8086828701612773565b9250506040612c9186828701612773565b9150509250925092565b6000608082019050612cb060008301876127e7565b8181036020830152612cc281866126f7565b9050612cd1604083018561293d565b612cde606083018461293d565b95945050505050565b60008060408385031215612cfe57612cfd6125db565b5b6000612d0c85828601612828565b9250506020612d1d85828601612828565b9150509250929050565b7f4e487b7100000000000000000000000000000000000000000000000000000000600052602260045260246000fd5b60006002820490506001821680612d6e57607f821691505b602082108103612d8157612d80612d27565b5b50919050565b7f4552433732313a20617070726f76616c20746f2063757272656e74206f776e6560008201527f7200000000000000000000000000000000000000000000000000000000000000602082015250565b6000612de36021836126ab565b9150612dee82612d87565b604082019050919050565b60006020820190508181036000830152612e1281612dd6565b9050919050565b7f4552433732313a20617070726f76652063616c6c6572206973206e6f7420746f60008201527f6b656e206f776e6572206f7220617070726f76656420666f7220616c6c000000602082015250565b6000612e75603d836126ab565b9150612e8082612e19565b604082019050919050565b60006020820190508181036000830152612ea481612e68565b9050919050565b7f4552433732313a2063616c6c6572206973206e6f7420746f6b656e206f776e6560008201527f72206f7220617070726f76656400000000000000000000000000000000000000602082015250565b6000612f07602d836126ab565b9150612f1282612eab565b604082019050919050565b60006020820190508181036000830152612f3681612efa565b9050919050565b7f43616c6c6572206973206e6f74206f776e6572206e6f7220617070726f766564600082015250565b6000612f736020836126ab565b9150612f7e82612f3d565b602082019050919050565b60006020820190508181036000830152612fa281612f66565b9050919050565b7f526f79616c74792063616e6e6f74206578636565642031303025000000000000600082015250565b6000612fdf601a836126ab565b9150612fea82612fa9565b602082019050919050565b6000602082019050818103600083015261300e81612fd2565b9050919050565b7f4552433732313a20696e76616c696420746f6b656e2049440000000000000000600082015250565b600061304b6018836126ab565b915061305682613015565b602082019050919050565b6000602082019050818103600083015261307a8161303e565b9050919050565b7f4552433732313a2061646472657373207a65726f206973206e6f74206120766160008201527f6c6964206f776e65720000000000000000000000000000000000000000000000602082015250565b60006130dd6029836126ab565b91506130e882613081565b604082019050919050565b6000602082019050818103600083015261310c816130d0565b9050919050565b6000606082019050613128600083018661293d565b61313560208301856127e7565b61314260408301846127e7565b949350505050565b600081905092915050565b6000613160826126a0565b61316a818561314a565b935061317a8185602086016126bc565b80840191505092915050565b60006131928285613155565b915061319e8284613155565b91508190509392505050565b60008190508160005260206000209050919050565b60006020601f8301049050919050565b600082821b905092915050565b60006008830261320c7fffffffffffffffffffffffffffffffffffffffffffffffffffffffffffffffff826131cf565b61321686836131cf565b95508019841693508086168417925050509392505050565b6000819050919050565b600061325361324e61324984612752565b61322e565b612752565b9050919050565b6000819050919050565b61326d83613238565b6132816132798261325a565b8484546131dc565b825550505050565b600090565b613296613289565b6132a1818484613264565b505050565b5b818110156132c5576132ba60008261328e565b6001810190506132a7565b5050565b601f82111561330a576132db816131aa565b6132e4846131bf565b810160208510156132f3578190505b6133076132ff856131bf565b8301826132a6565b50505b505050565b600082821c905092915050565b600061332d6000198460080261330f565b1980831691505092915050565b6000613346838361331c565b9150826002028217905092915050565b61335f826126a0565b67ffffffffffffffff811115613378576133776129dd565b5b6133828254612d56565b61338d8282856132c9565b600060209050601f8311600181146133c057600084156133ae578287015190505b6133b8858261333a565b865550613420565b601f1984166133ce866131aa565b60005b828110156133f6578489015182556001820191506020850194506020810190506133d1565b86831015613413578489015161340f601f89168261331c565b8355505b6001600288020188555050505b505050505050565b600060a08201905061343d600083018861293d565b61344a60208301876127e7565b818103604083015261345c81866126f7565b905061346b606083018561293d565b613478608083018461293d565b9695505050505050565b7f546f6b656e20646f6573206e6f74206578697374000000000000000000000000600082015250565b60006134b86014836126ab565b91506134c382613482565b602082019050919050565b600060208201905081810360008301526134e7816134ab565b9050919050565b7f4f776e61626c653a206e6577206f776e657220697320746865207a65726f206160008201527f6464726573730000000000000000000000000000000000000000000000000000602082015250565b600061354a6026836126ab565b9150613555826134ee565b604082019050919050565b600060208201905081810360008301526135798161353d565b9050919050565b7f4552433732313a207472616e736665722066726f6d20696e636f72726563742060008201527f6f776e6572000000000000000000000000000000000000000000000000000000602082015250565b60006135dc6025836126ab565b91506135e782613580565b604082019050919050565b6000602082019050818103600083015261360b816135cf565b9050919050565b7f4552433732313a207472616e7366657220746f20746865207a65726f2061646460008201527f7265737300000000000000000000000000000000000000000000000000000000602082015250565b600061366e6024836126ab565b915061367982613612565b604082019050919050565b6000602082019050818103600083015261369d81613661565b9050919050565b7f4f776e61626c653a2063616c6c6572206973206e6f7420746865206f776e6572600082015250565b60006136da6020836126ab565b91506136e5826136a4565b602082019050919050565b60006020820190508181036000830152613709816136cd565b9050919050565b7f4552433732313a20617070726f766520746f2063616c6c657200000000000000600082015250565b60006137466019836126ab565b915061375182613710565b602082019050919050565b6000602082019050818103600083015261377581613739565b9050919050565b7f4552433732313a207472616e7366657220746f206e6f6e20455243373231526560008201527f63656976657220696d706c656d656e7465720000000000000000000000000000602082015250565b60006137d86032836126ab565b91506137e38261377c565b604082019050919050565b60006020820190508181036000830152613807816137cb565b9050919050565b7f45524337323155524953746f726167653a2055524920736574206f66206e6f6e60008201527f6578697374656e7420746f6b656e000000000000000000000000000000000000602082015250565b600061386a602e836126ab565b91506138758261380e565b604082019050919050565b600060208201905081810360008301526138998161385d565b9050919050565b600081519050919050565b600082825260208201905092915050565b60006138c7826138a0565b6138d181856138ab565b93506138e18185602086016126bc565b6138ea816126e6565b840191505092915050565b600060808201905061390a60008301876127e7565b61391760208301866127e7565b613924604083018561293d565b818103606083015261393681846138bc565b905095945050505050565b60008151905061395081612611565b92915050565b60006020828403121561396c5761396b6125db565b5b600061397a84828501613941565b91505092915050565b7f4e487b7100000000000000000000000000000000000000000000000000000000600052601260045260246000fd5b7f4552433732313a206d696e7420746f20746865207a65726f2061646472657373600082015250565b60006139e86020836126ab565b91506139f3826139b2565b602082019050919050565b60006020820190508181036000830152613a17816139db565b9050919050565b7f4552433732313a20746f6b656e20616c7265616479206d696e74656400000000600082015250565b6000613a54601c836126ab565b9150613a5f82613a1e565b602082019050919050565b60006020820190508181036000830152613a8381613a47565b905091905056fea26469706673582212201e864f00a04a96ed11214e3b9ce118a4dcd0462c3e697aa36d262e07a5ffcf4464736f6c63430008180033",
  "linkReferences": {},
  "deployedLinkReferences": {}
}